{
	"data": {
		"bytecode": {
			"linkReferences": {},
			"object": "6080604052348015600e575f80fd5b5061019e8061001c5f395ff3fe60806040526004361061001d575f3560e01c8063986cc31114610021575b5f80fd5b61003b600480360381019061003691906100b8565b61003d565b005b7ff95a2ebe7ca04835b656f990b085331c90b6c7eb0cec377656a6896dc5518c5a8383833447604051610074959493929190610117565b60405180910390a1505050565b5f80fd5b5f819050919050565b61009781610085565b81146100a1575f80fd5b50565b5f813590506100b28161008e565b92915050565b5f805f606084860312156100cf576100ce610081565b5b5f6100dc868287016100a4565b93505060206100ed868287016100a4565b92505060406100fe868287016100a4565b9150509250925092565b61011181610085565b82525050565b5f60a08201905061012a5f830188610108565b6101376020830187610108565b6101446040830186610108565b6101516060830185610108565b61015e6080830184610108565b969550505050505056fea26469706673582212209d247b51ac14375278cfcb8c376ea45274e0b35de23defd36c2c6ac59e12ef3e64736f6c634300081a0033",
			"opcodes": "PUSH1 0x80 PUSH1 0x40 MSTORE CALLVALUE DUP1 ISZERO PUSH1 0xE JUMPI PUSH0 DUP1 REVERT JUMPDEST POP PUSH2 0x19E DUP1 PUSH2 0x1C PUSH0 CODECOPY PUSH0 RETURN INVALID PUSH1 0x80 PUSH1 0x40 MSTORE PUSH1 0x4 CALLDATASIZE LT PUSH2 0x1D JUMPI PUSH0 CALLDATALOAD PUSH1 0xE0 SHR DUP1 PUSH4 0x986CC311 EQ PUSH2 0x21 JUMPI JUMPDEST PUSH0 DUP1 REVERT JUMPDEST PUSH2 0x3B PUSH1 0x4 DUP1 CALLDATASIZE SUB DUP2 ADD SWAP1 PUSH2 0x36 SWAP2 SWAP1 PUSH2 0xB8 JUMP JUMPDEST PUSH2 0x3D JUMP JUMPDEST STOP JUMPDEST PUSH32 0xF95A2EBE7CA04835B656F990B085331C90B6C7EB0CEC377656A6896DC5518C5A DUP4 DUP4 DUP4 CALLVALUE SELFBALANCE PUSH1 0x40 MLOAD PUSH2 0x74 SWAP6 SWAP5 SWAP4 SWAP3 SWAP2 SWAP1 PUSH2 0x117 JUMP JUMPDEST PUSH1 0x40 MLOAD DUP1 SWAP2 SUB SWAP1 LOG1 POP POP POP JUMP JUMPDEST PUSH0 DUP1 REVERT JUMPDEST PUSH0 DUP2 SWAP1 POP SWAP2 SWAP1 POP JUMP JUMPDEST PUSH2 0x97 DUP2 PUSH2 0x85 JUMP JUMPDEST DUP2 EQ PUSH2 0xA1 JUMPI PUSH0 DUP1 REVERT JUMPDEST POP JUMP JUMPDEST PUSH0 DUP2 CALLDATALOAD SWAP1 POP PUSH2 0xB2 DUP2 PUSH2 0x8E JUMP JUMPDEST SWAP3 SWAP2 POP POP JUMP JUMPDEST PUSH0 DUP1 PUSH0 PUSH1 0x60 DUP5 DUP7 SUB SLT ISZERO PUSH2 0xCF JUMPI PUSH2 0xCE PUSH2 0x81 JUMP JUMPDEST JUMPDEST PUSH0 PUSH2 0xDC DUP7 DUP3 DUP8 ADD PUSH2 0xA4 JUMP JUMPDEST SWAP4 POP POP PUSH1 0x20 PUSH2 0xED DUP7 DUP3 DUP8 ADD PUSH2 0xA4 JUMP JUMPDEST SWAP3 POP POP PUSH1 0x40 PUSH2 0xFE DUP7 DUP3 DUP8 ADD PUSH2 0xA4 JUMP JUMPDEST SWAP2 POP POP SWAP3 POP SWAP3 POP SWAP3 JUMP JUMPDEST PUSH2 0x111 DUP2 PUSH2 0x85 JUMP JUMPDEST DUP3 MSTORE POP POP JUMP JUMPDEST PUSH0 PUSH1 0xA0 DUP3 ADD SWAP1 POP PUSH2 0x12A PUSH0 DUP4 ADD DUP9 PUSH2 0x108 JUMP JUMPDEST PUSH2 0x137 PUSH1 0x20 DUP4 ADD DUP8 PUSH2 0x108 JUMP JUMPDEST PUSH2 0x144 PUSH1 0x40 DUP4 ADD DUP7 PUSH2 0x108 JUMP JUMPDEST PUSH2 0x151 PUSH1 0x60 DUP4 ADD DUP6 PUSH2 0x108 JUMP JUMPDEST PUSH2 0x15E PUSH1 0x80 DUP4 ADD DUP5 PUSH2 0x108 JUMP JUMPDEST SWAP7 SWAP6 POP POP POP POP POP POP JUMP INVALID LOG2 PUSH5 0x6970667358 0x22 SLT KECCAK256 SWAP14 0x24 PUSH28 0x51AC14375278CFCB8C376EA45274E0B35DE23DEFD36C2C6AC59E12EF RETURNDATACOPY PUSH5 0x736F6C6343 STOP ADDMOD BYTE STOP CALLER "
		},
		"gasEstimates": {
			"creation": {
				"codeDepositCost": "82800",
				"executionCost": "127",
				"totalCost": "82927"
			},
			"external": {
				"executeProposal(uint256,uint256,uint256)": "infinite"
			}
		},
		"methodIdentifiers": {
			"executeProposal(uint256,uint256,uint256)": "986cc311"
		}
	},
	"abi": [
		{
			"anonymous": false,
			"inputs": [
				{
					"indexed": false,
					"internalType": "uint256",
					"name": "proposalId",
					"type": "uint256"
				},
				{
					"indexed": false,
					"internalType": "uint256",
					"name": "numVotes",
					"type": "uint256"
				},
				{
					"indexed": false,
					"internalType": "uint256",
					"name": "numTokens",
					"type": "uint256"
				},
				{
					"indexed": false,
					"internalType": "uint256",
					"name": "valueReceived",
					"type": "uint256"
				},
				{
					"indexed": false,
					"internalType": "uint256",
					"name": "contractBalance",
					"type": "uint256"
				}
			],
			"name": "Executed",
			"type": "event"
		},
		{
			"inputs": [
				{
					"internalType": "uint256",
					"name": "proposalId",
					"type": "uint256"
				},
				{
					"internalType": "uint256",
					"name": "numVotes",
					"type": "uint256"
				},
				{
					"internalType": "uint256",
					"name": "numTokens",
					"type": "uint256"
				}
			],
			"name": "executeProposal",
			"outputs": [],
			"stateMutability": "payable",
			"type": "function"
		}
	]
}